{
  "_format": "hh-sol-artifact-1",
  "contractName": "CharityRegistry",
  "sourceName": "contracts/CharityRegistry.sol",
  "abi": [
    {
      "inputs": [],
      "stateMutability": "nonpayable",
      "type": "constructor"
    },
    {
      "inputs": [
        {
          "internalType": "address",
          "name": "owner",
          "type": "address"
        }
      ],
      "name": "OwnableInvalidOwner",
      "type": "error"
    },
    {
      "inputs": [
        {
          "internalType": "address",
          "name": "account",
          "type": "address"
        }
      ],
      "name": "OwnableUnauthorizedAccount",
      "type": "error"
    },
    {
      "anonymous": false,
      "inputs": [
        {
          "indexed": true,
          "internalType": "uint256",
          "name": "applicationId",
          "type": "uint256"
        },
        {
          "indexed": true,
          "internalType": "uint256",
          "name": "projectId",
          "type": "uint256"
        },
        {
          "indexed": false,
          "internalType": "uint256",
          "name": "approvedAt",
          "type": "uint256"
        }
      ],
      "name": "ApplicationApproved",
      "type": "event"
    },
    {
      "anonymous": false,
      "inputs": [
        {
          "indexed": true,
          "internalType": "uint256",
          "name": "applicationId",
          "type": "uint256"
        },
        {
          "indexed": false,
          "internalType": "string",
          "name": "reason",
          "type": "string"
        },
        {
          "indexed": false,
          "internalType": "uint256",
          "name": "rejectedAt",
          "type": "uint256"
        }
      ],
      "name": "ApplicationRejected",
      "type": "event"
    },
    {
      "anonymous": false,
      "inputs": [
        {
          "indexed": true,
          "internalType": "uint256",
          "name": "applicationId",
          "type": "uint256"
        },
        {
          "indexed": true,
          "internalType": "address",
          "name": "applicant",
          "type": "address"
        },
        {
          "indexed": false,
          "internalType": "string",
          "name": "organizationName",
          "type": "string"
        },
        {
          "indexed": false,
          "internalType": "uint256",
          "name": "submittedAt",
          "type": "uint256"
        }
      ],
      "name": "ApplicationSubmitted",
      "type": "event"
    },
    {
      "anonymous": false,
      "inputs": [
        {
          "indexed": true,
          "internalType": "uint256",
          "name": "projectId",
          "type": "uint256"
        },
        {
          "indexed": false,
          "internalType": "uint256",
          "name": "amount",
          "type": "uint256"
        }
      ],
      "name": "FundsReceived",
      "type": "event"
    },
    {
      "anonymous": false,
      "inputs": [
        {
          "indexed": true,
          "internalType": "address",
          "name": "previousOwner",
          "type": "address"
        },
        {
          "indexed": true,
          "internalType": "address",
          "name": "newOwner",
          "type": "address"
        }
      ],
      "name": "OwnershipTransferred",
      "type": "event"
    },
    {
      "anonymous": false,
      "inputs": [
        {
          "indexed": true,
          "internalType": "uint256",
          "name": "projectId",
          "type": "uint256"
        },
        {
          "indexed": false,
          "internalType": "string",
          "name": "name",
          "type": "string"
        },
        {
          "indexed": false,
          "internalType": "address",
          "name": "wallet",
          "type": "address"
        },
        {
          "indexed": false,
          "internalType": "uint256",
          "name": "createdAt",
          "type": "uint256"
        }
      ],
      "name": "ProjectCreated",
      "type": "event"
    },
    {
      "anonymous": false,
      "inputs": [
        {
          "indexed": true,
          "internalType": "uint256",
          "name": "projectId",
          "type": "uint256"
        }
      ],
      "name": "ProjectDeactivated",
      "type": "event"
    },
    {
      "anonymous": false,
      "inputs": [
        {
          "indexed": true,
          "internalType": "uint256",
          "name": "projectId",
          "type": "uint256"
        },
        {
          "indexed": false,
          "internalType": "string",
          "name": "name",
          "type": "string"
        },
        {
          "indexed": false,
          "internalType": "string",
          "name": "description",
          "type": "string"
        }
      ],
      "name": "ProjectUpdated",
      "type": "event"
    },
    {
      "inputs": [
        {
          "internalType": "uint256",
          "name": "applicationId",
          "type": "uint256"
        },
        {
          "internalType": "string",
          "name": "projectDescription",
          "type": "string"
        }
      ],
      "name": "approveApplication",
      "outputs": [
        {
          "internalType": "uint256",
          "name": "",
          "type": "uint256"
        }
      ],
      "stateMutability": "nonpayable",
      "type": "function"
    },
    {
      "inputs": [
        {
          "internalType": "string",
          "name": "name",
          "type": "string"
        },
        {
          "internalType": "string",
          "name": "description",
          "type": "string"
        },
        {
          "internalType": "address payable",
          "name": "wallet",
          "type": "address"
        }
      ],
      "name": "createProject",
      "outputs": [
        {
          "internalType": "uint256",
          "name": "",
          "type": "uint256"
        }
      ],
      "stateMutability": "nonpayable",
      "type": "function"
    },
    {
      "inputs": [
        {
          "internalType": "uint256",
          "name": "projectId",
          "type": "uint256"
        }
      ],
      "name": "deactivateProject",
      "outputs": [],
      "stateMutability": "nonpayable",
      "type": "function"
    },
    {
      "inputs": [],
      "name": "getAllActiveProjects",
      "outputs": [
        {
          "components": [
            {
              "internalType": "uint256",
              "name": "id",
              "type": "uint256"
            },
            {
              "internalType": "string",
              "name": "name",
              "type": "string"
            },
            {
              "internalType": "string",
              "name": "description",
              "type": "string"
            },
            {
              "internalType": "address payable",
              "name": "wallet",
              "type": "address"
            },
            {
              "internalType": "uint256",
              "name": "totalReceived",
              "type": "uint256"
            },
            {
              "internalType": "bool",
              "name": "active",
              "type": "bool"
            },
            {
              "internalType": "uint256",
              "name": "createdAt",
              "type": "uint256"
            }
          ],
          "internalType": "struct CharityRegistry.Project[]",
          "name": "",
          "type": "tuple[]"
        }
      ],
      "stateMutability": "view",
      "type": "function"
    },
    {
      "inputs": [],
      "name": "getAllApplications",
      "outputs": [
        {
          "components": [
            {
              "internalType": "uint256",
              "name": "id",
              "type": "uint256"
            },
            {
              "internalType": "address",
              "name": "applicant",
              "type": "address"
            },
            {
              "internalType": "string",
              "name": "organizationName",
              "type": "string"
            },
            {
              "internalType": "string",
              "name": "ein",
              "type": "string"
            },
            {
              "internalType": "string",
              "name": "contactEmail",
              "type": "string"
            },
            {
              "internalType": "string",
              "name": "missionStatement",
              "type": "string"
            },
            {
              "internalType": "address payable",
              "name": "wallet",
              "type": "address"
            },
            {
              "internalType": "string",
              "name": "documentsHash",
              "type": "string"
            },
            {
              "internalType": "string",
              "name": "logoHash",
              "type": "string"
            },
            {
              "internalType": "enum CharityRegistry.ApplicationStatus",
              "name": "status",
              "type": "uint8"
            },
            {
              "internalType": "uint256",
              "name": "submittedAt",
              "type": "uint256"
            },
            {
              "internalType": "uint256",
              "name": "reviewedAt",
              "type": "uint256"
            },
            {
              "internalType": "string",
              "name": "reviewNotes",
              "type": "string"
            }
          ],
          "internalType": "struct CharityRegistry.Application[]",
          "name": "",
          "type": "tuple[]"
        }
      ],
      "stateMutability": "view",
      "type": "function"
    },
    {
      "inputs": [],
      "name": "getAllProjects",
      "outputs": [
        {
          "components": [
            {
              "internalType": "uint256",
              "name": "id",
              "type": "uint256"
            },
            {
              "internalType": "string",
              "name": "name",
              "type": "string"
            },
            {
              "internalType": "string",
              "name": "description",
              "type": "string"
            },
            {
              "internalType": "address payable",
              "name": "wallet",
              "type": "address"
            },
            {
              "internalType": "uint256",
              "name": "totalReceived",
              "type": "uint256"
            },
            {
              "internalType": "bool",
              "name": "active",
              "type": "bool"
            },
            {
              "internalType": "uint256",
              "name": "createdAt",
              "type": "uint256"
            }
          ],
          "internalType": "struct CharityRegistry.Project[]",
          "name": "",
          "type": "tuple[]"
        }
      ],
      "stateMutability": "view",
      "type": "function"
    },
    {
      "inputs": [
        {
          "internalType": "uint256",
          "name": "applicationId",
          "type": "uint256"
        }
      ],
      "name": "getApplication",
      "outputs": [
        {
          "components": [
            {
              "internalType": "uint256",
              "name": "id",
              "type": "uint256"
            },
            {
              "internalType": "address",
              "name": "applicant",
              "type": "address"
            },
            {
              "internalType": "string",
              "name": "organizationName",
              "type": "string"
            },
            {
              "internalType": "string",
              "name": "ein",
              "type": "string"
            },
            {
              "internalType": "string",
              "name": "contactEmail",
              "type": "string"
            },
            {
              "internalType": "string",
              "name": "missionStatement",
              "type": "string"
            },
            {
              "internalType": "address payable",
              "name": "wallet",
              "type": "address"
            },
            {
              "internalType": "string",
              "name": "documentsHash",
              "type": "string"
            },
            {
              "internalType": "string",
              "name": "logoHash",
              "type": "string"
            },
            {
              "internalType": "enum CharityRegistry.ApplicationStatus",
              "name": "status",
              "type": "uint8"
            },
            {
              "internalType": "uint256",
              "name": "submittedAt",
              "type": "uint256"
            },
            {
              "internalType": "uint256",
              "name": "reviewedAt",
              "type": "uint256"
            },
            {
              "internalType": "string",
              "name": "reviewNotes",
              "type": "string"
            }
          ],
          "internalType": "struct CharityRegistry.Application",
          "name": "",
          "type": "tuple"
        }
      ],
      "stateMutability": "view",
      "type": "function"
    },
    {
      "inputs": [
        {
          "internalType": "address",
          "name": "applicant",
          "type": "address"
        }
      ],
      "name": "getApplicationsByApplicant",
      "outputs": [
        {
          "internalType": "uint256[]",
          "name": "",
          "type": "uint256[]"
        }
      ],
      "stateMutability": "view",
      "type": "function"
    },
    {
      "inputs": [],
      "name": "getPendingApplications",
      "outputs": [
        {
          "components": [
            {
              "internalType": "uint256",
              "name": "id",
              "type": "uint256"
            },
            {
              "internalType": "address",
              "name": "applicant",
              "type": "address"
            },
            {
              "internalType": "string",
              "name": "organizationName",
              "type": "string"
            },
            {
              "internalType": "string",
              "name": "ein",
              "type": "string"
            },
            {
              "internalType": "string",
              "name": "contactEmail",
              "type": "string"
            },
            {
              "internalType": "string",
              "name": "missionStatement",
              "type": "string"
            },
            {
              "internalType": "address payable",
              "name": "wallet",
              "type": "address"
            },
            {
              "internalType": "string",
              "name": "documentsHash",
              "type": "string"
            },
            {
              "internalType": "string",
              "name": "logoHash",
              "type": "string"
            },
            {
              "internalType": "enum CharityRegistry.ApplicationStatus",
              "name": "status",
              "type": "uint8"
            },
            {
              "internalType": "uint256",
              "name": "submittedAt",
              "type": "uint256"
            },
            {
              "internalType": "uint256",
              "name": "reviewedAt",
              "type": "uint256"
            },
            {
              "internalType": "string",
              "name": "reviewNotes",
              "type": "string"
            }
          ],
          "internalType": "struct CharityRegistry.Application[]",
          "name": "",
          "type": "tuple[]"
        }
      ],
      "stateMutability": "view",
      "type": "function"
    },
    {
      "inputs": [
        {
          "internalType": "uint256",
          "name": "projectId",
          "type": "uint256"
        }
      ],
      "name": "getProject",
      "outputs": [
        {
          "components": [
            {
              "internalType": "uint256",
              "name": "id",
              "type": "uint256"
            },
            {
              "internalType": "string",
              "name": "name",
              "type": "string"
            },
            {
              "internalType": "string",
              "name": "description",
              "type": "string"
            },
            {
              "internalType": "address payable",
              "name": "wallet",
              "type": "address"
            },
            {
              "internalType": "uint256",
              "name": "totalReceived",
              "type": "uint256"
            },
            {
              "internalType": "bool",
              "name": "active",
              "type": "bool"
            },
            {
              "internalType": "uint256",
              "name": "createdAt",
              "type": "uint256"
            }
          ],
          "internalType": "struct CharityRegistry.Project",
          "name": "",
          "type": "tuple"
        }
      ],
      "stateMutability": "view",
      "type": "function"
    },
    {
      "inputs": [],
      "name": "getTotalApplications",
      "outputs": [
        {
          "internalType": "uint256",
          "name": "",
          "type": "uint256"
        }
      ],
      "stateMutability": "view",
      "type": "function"
    },
    {
      "inputs": [],
      "name": "getTotalProjects",
      "outputs": [
        {
          "internalType": "uint256",
          "name": "",
          "type": "uint256"
        }
      ],
      "stateMutability": "view",
      "type": "function"
    },
    {
      "inputs": [
        {
          "internalType": "uint256",
          "name": "projectId",
          "type": "uint256"
        }
      ],
      "name": "isProjectActive",
      "outputs": [
        {
          "internalType": "bool",
          "name": "",
          "type": "bool"
        }
      ],
      "stateMutability": "view",
      "type": "function"
    },
    {
      "inputs": [],
      "name": "owner",
      "outputs": [
        {
          "internalType": "address",
          "name": "",
          "type": "address"
        }
      ],
      "stateMutability": "view",
      "type": "function"
    },
    {
      "inputs": [
        {
          "internalType": "uint256",
          "name": "projectId",
          "type": "uint256"
        },
        {
          "internalType": "uint256",
          "name": "amount",
          "type": "uint256"
        }
      ],
      "name": "recordFundsReceived",
      "outputs": [],
      "stateMutability": "nonpayable",
      "type": "function"
    },
    {
      "inputs": [
        {
          "internalType": "uint256",
          "name": "applicationId",
          "type": "uint256"
        },
        {
          "internalType": "string",
          "name": "reason",
          "type": "string"
        }
      ],
      "name": "rejectApplication",
      "outputs": [],
      "stateMutability": "nonpayable",
      "type": "function"
    },
    {
      "inputs": [],
      "name": "renounceOwnership",
      "outputs": [],
      "stateMutability": "nonpayable",
      "type": "function"
    },
    {
      "inputs": [
        {
          "internalType": "string",
          "name": "organizationName",
          "type": "string"
        },
        {
          "internalType": "string",
          "name": "ein",
          "type": "string"
        },
        {
          "internalType": "string",
          "name": "contactEmail",
          "type": "string"
        },
        {
          "internalType": "string",
          "name": "missionStatement",
          "type": "string"
        },
        {
          "internalType": "address payable",
          "name": "wallet",
          "type": "address"
        },
        {
          "internalType": "string",
          "name": "documentsHash",
          "type": "string"
        },
        {
          "internalType": "string",
          "name": "logoHash",
          "type": "string"
        }
      ],
      "name": "submitApplication",
      "outputs": [
        {
          "internalType": "uint256",
          "name": "",
          "type": "uint256"
        }
      ],
      "stateMutability": "nonpayable",
      "type": "function"
    },
    {
      "inputs": [
        {
          "internalType": "address",
          "name": "newOwner",
          "type": "address"
        }
      ],
      "name": "transferOwnership",
      "outputs": [],
      "stateMutability": "nonpayable",
      "type": "function"
    },
    {
      "inputs": [
        {
          "internalType": "uint256",
          "name": "projectId",
          "type": "uint256"
        },
        {
          "internalType": "string",
          "name": "name",
          "type": "string"
        },
        {
          "internalType": "string",
          "name": "description",
          "type": "string"
        }
      ],
      "name": "updateProject",
      "outputs": [],
      "stateMutability": "nonpayable",
      "type": "function"
    }
  ],
  "bytecode": "0x60806040523480156200001157600080fd5b5033806200003957604051631e4fbdf760e01b81526000600482015260240160405180910390fd5b62000044816200004b565b506200009b565b600080546001600160a01b038381166001600160a01b0319831681178455604051919092169283917f8be0079c531659141344cd1fd0a4f28419497f9722a3daafe3b4186f6b6457e09190a35050565b61327180620000ab6000396000f3fe608060405234801561001057600080fd5b506004361061012c5760003560e01c8063715018a6116100ad578063edf5a27311610071578063edf5a2731461025d578063ee685df514610270578063f0f3f2c814610293578063f2ef441b146102b3578063f2fde38b146102bb57600080fd5b8063715018a61461020a57806380d0382914610212578063812739a2146102275780638c4c13471461022f5780638da5cb5b1461024257600080fd5b8063501bc554116100f4578063501bc554146101b5578063581c091b146101ca57806360ae1e92146101dc5780636630d3ab146101ef578063688c66c2146101f757600080fd5b8063063155c1146101315780631003c4541461015a57806311575df01461016f5780631f2f4bfd14610182578063436e6958146101a2575b600080fd5b61014461013f366004612893565b6102ce565b60405161015191906128b7565b60405180910390f35b61016d6101683660046128fb565b61033a565b005b61016d61017d3660046129c0565b6103c3565b610195610190366004612a07565b6104c4565b6040516101519190612bc8565b61016d6101b0366004612a07565b61098b565b6101bd610a58565b6040516101519190612bdb565b6004545b604051908152602001610151565b6101ce6101ea366004612c4d565b610faf565b6101bd6111b1565b6101ce610205366004612cc5565b6117e7565b61016d611c01565b61021a611c15565b6040516101519190612e43565b6001546101ce565b61016d61023d366004612e98565b611e51565b6000546040516001600160a01b039091168152602001610151565b6101ce61026b3660046129c0565b611f2d565b61028361027e366004612a07565b612225565b6040519015158152602001610151565b6102a66102a1366004612a07565b61224c565b6040516101519190612f05565b61021a6123fe565b61016d6102c9366004612893565b6126f0565b6001600160a01b03811660009081526007602090815260409182902080548351818402810184019094528084526060939283018282801561032e57602002820191906000526020600020905b81548152602001906001019080831161031a575b50505050509050919050565b60015482106103645760405162461bcd60e51b815260040161035b90612f18565b60405180910390fd5b60008281526002602052604081206004018054839290610385908490612f5e565b909155505060405181815282907f063d07ee72a7483b8e07ca09054bb686775c5c030f945dde3823a5257a0a93eb9060200160405180910390a25050565b6103cb61272e565b60045482106103ec5760405162461bcd60e51b815260040161035b90612f71565b600082815260056020526040812090600982015460ff16600281111561041457610414612a66565b146104615760405162461bcd60e51b815260206004820152601a60248201527f4170706c69636174696f6e206973206e6f742070656e64696e67000000000000604482015260640161035b565b60098101805460ff1916600217905542600b820155600c8101610484838261302b565b50827fe446a18c2dd7e8323ab30cba269ad8c50ab30706ee1cd0307d9e8a79dca1156083426040516104b79291906130eb565b60405180910390a2505050565b6104cc6127ab565b60045482106104ed5760405162461bcd60e51b815260040161035b90612f71565b60008281526005602090815260409182902082516101a0810184528154815260018201546001600160a01b031692810192909252600281018054929391929184019161053890612fa8565b80601f016020809104026020016040519081016040528092919081815260200182805461056490612fa8565b80156105b15780601f10610586576101008083540402835291602001916105b1565b820191906000526020600020905b81548152906001019060200180831161059457829003601f168201915b505050505081526020016003820180546105ca90612fa8565b80601f01602080910402602001604051908101604052809291908181526020018280546105f690612fa8565b80156106435780601f1061061857610100808354040283529160200191610643565b820191906000526020600020905b81548152906001019060200180831161062657829003601f168201915b5050505050815260200160048201805461065c90612fa8565b80601f016020809104026020016040519081016040528092919081815260200182805461068890612fa8565b80156106d55780601f106106aa576101008083540402835291602001916106d5565b820191906000526020600020905b8154815290600101906020018083116106b857829003601f168201915b505050505081526020016005820180546106ee90612fa8565b80601f016020809104026020016040519081016040528092919081815260200182805461071a90612fa8565b80156107675780601f1061073c57610100808354040283529160200191610767565b820191906000526020600020905b81548152906001019060200180831161074a57829003601f168201915b505050918352505060068201546001600160a01b0316602082015260078201805460409092019161079790612fa8565b80601f01602080910402602001604051908101604052809291908181526020018280546107c390612fa8565b80156108105780601f106107e557610100808354040283529160200191610810565b820191906000526020600020905b8154815290600101906020018083116107f357829003601f168201915b5050505050815260200160088201805461082990612fa8565b80601f016020809104026020016040519081016040528092919081815260200182805461085590612fa8565b80156108a25780601f10610877576101008083540402835291602001916108a2565b820191906000526020600020905b81548152906001019060200180831161088557829003601f168201915b5050509183525050600982015460209091019060ff1660028111156108c9576108c9612a66565b60028111156108da576108da612a66565b8152602001600a8201548152602001600b8201548152602001600c8201805461090290612fa8565b80601f016020809104026020016040519081016040528092919081815260200182805461092e90612fa8565b801561097b5780601f106109505761010080835404028352916020019161097b565b820191906000526020600020905b81548152906001019060200180831161095e57829003601f168201915b5050505050815250509050919050565b61099361272e565b60015481106109b45760405162461bcd60e51b815260040161035b90612f18565b60008181526002602052604090206005015460ff16610a155760405162461bcd60e51b815260206004820152601860248201527f50726f6a65637420616c726561647920696e6163746976650000000000000000604482015260640161035b565b600081815260026020526040808220600501805460ff191690555182917f32619b1c1bac9b073234f8ace80ba5659d4a461276966921ca62cc24a32c7ff391a250565b60065460609060009067ffffffffffffffff811115610a7957610a7961291d565b604051908082528060200260200182016040528015610ab257816020015b610a9f6127ab565b815260200190600190039081610a975790505b50905060005b600654811015610fa9576005600060068381548110610ad957610ad961310d565b60009182526020808320909101548352828101939093526040918201902081516101a0810183528154815260018201546001600160a01b0316938101939093526002810180549192840191610b2d90612fa8565b80601f0160208091040260200160405190810160405280929190818152602001828054610b5990612fa8565b8015610ba65780601f10610b7b57610100808354040283529160200191610ba6565b820191906000526020600020905b815481529060010190602001808311610b8957829003601f168201915b50505050508152602001600382018054610bbf90612fa8565b80601f0160208091040260200160405190810160405280929190818152602001828054610beb90612fa8565b8015610c385780601f10610c0d57610100808354040283529160200191610c38565b820191906000526020600020905b815481529060010190602001808311610c1b57829003601f168201915b50505050508152602001600482018054610c5190612fa8565b80601f0160208091040260200160405190810160405280929190818152602001828054610c7d90612fa8565b8015610cca5780601f10610c9f57610100808354040283529160200191610cca565b820191906000526020600020905b815481529060010190602001808311610cad57829003601f168201915b50505050508152602001600582018054610ce390612fa8565b80601f0160208091040260200160405190810160405280929190818152602001828054610d0f90612fa8565b8015610d5c5780601f10610d3157610100808354040283529160200191610d5c565b820191906000526020600020905b815481529060010190602001808311610d3f57829003601f168201915b505050918352505060068201546001600160a01b03166020820152600782018054604090920191610d8c90612fa8565b80601f0160208091040260200160405190810160405280929190818152602001828054610db890612fa8565b8015610e055780601f10610dda57610100808354040283529160200191610e05565b820191906000526020600020905b815481529060010190602001808311610de857829003601f168201915b50505050508152602001600882018054610e1e90612fa8565b80601f0160208091040260200160405190810160405280929190818152602001828054610e4a90612fa8565b8015610e975780601f10610e6c57610100808354040283529160200191610e97565b820191906000526020600020905b815481529060010190602001808311610e7a57829003601f168201915b5050509183525050600982015460209091019060ff166002811115610ebe57610ebe612a66565b6002811115610ecf57610ecf612a66565b8152602001600a8201548152602001600b8201548152602001600c82018054610ef790612fa8565b80601f0160208091040260200160405190810160405280929190818152602001828054610f2390612fa8565b8015610f705780601f10610f4557610100808354040283529160200191610f70565b820191906000526020600020905b815481529060010190602001808311610f5357829003601f168201915b505050505081525050828281518110610f8b57610f8b61310d565b60200260200101819052508080610fa190613123565b915050610ab8565b50919050565b6000610fb961272e565b60008451116110015760405162461bcd60e51b81526020600482015260146024820152734e616d652063616e6e6f7420626520656d70747960601b604482015260640161035b565b6001600160a01b0382166110505760405162461bcd60e51b8152602060048201526016602482015275496e76616c69642077616c6c6574206164647265737360501b604482015260640161035b565b60018054908190600061106283613123565b90915550506040805160e08101825282815260208082018881528284018890526001600160a01b0387166060840152600060808401819052600160a085018190524260c0860152868252600290935293909320825181559251919291908201906110cc908261302b565b50604082015160028201906110e1908261302b565b506060820151600382810180546001600160a01b0319166001600160a01b03909316929092179091556080830151600483015560a083015160058301805460ff191691151591909117905560c09092015160069091015580546001810182556000919091527fc2575a0e9e593c00f959f8c92f12db2869c3395a3b0502d05e2516446f71f85b0181905560405181907fa026ee65bff24e0219543a4cec2746ef952b145e2658ac5db36953d7044712a9906111a19088908790429061313c565b60405180910390a2949350505050565b60606000805b60065481101561123257600060056000600684815481106111da576111da61310d565b6000918252602080832090910154835282019290925260400190206009015460ff16600281111561120d5761120d612a66565b03611220578161121c81613123565b9250505b8061122a81613123565b9150506111b7565b5060008167ffffffffffffffff81111561124e5761124e61291d565b60405190808252806020026020018201604052801561128757816020015b6112746127ab565b81526020019060019003908161126c5790505b5090506000805b6006548110156117de57600060056000600684815481106112b1576112b161310d565b6000918252602080832090910154835282019290925260400190206009015460ff1660028111156112e4576112e4612a66565b036117cc5760056000600683815481106113005761130061310d565b60009182526020808320909101548352828101939093526040918201902081516101a0810183528154815260018201546001600160a01b031693810193909352600281018054919284019161135490612fa8565b80601f016020809104026020016040519081016040528092919081815260200182805461138090612fa8565b80156113cd5780601f106113a2576101008083540402835291602001916113cd565b820191906000526020600020905b8154815290600101906020018083116113b057829003601f168201915b505050505081526020016003820180546113e690612fa8565b80601f016020809104026020016040519081016040528092919081815260200182805461141290612fa8565b801561145f5780601f106114345761010080835404028352916020019161145f565b820191906000526020600020905b81548152906001019060200180831161144257829003601f168201915b5050505050815260200160048201805461147890612fa8565b80601f01602080910402602001604051908101604052809291908181526020018280546114a490612fa8565b80156114f15780601f106114c6576101008083540402835291602001916114f1565b820191906000526020600020905b8154815290600101906020018083116114d457829003601f168201915b5050505050815260200160058201805461150a90612fa8565b80601f016020809104026020016040519081016040528092919081815260200182805461153690612fa8565b80156115835780601f1061155857610100808354040283529160200191611583565b820191906000526020600020905b81548152906001019060200180831161156657829003601f168201915b505050918352505060068201546001600160a01b031660208201526007820180546040909201916115b390612fa8565b80601f01602080910402602001604051908101604052809291908181526020018280546115df90612fa8565b801561162c5780601f106116015761010080835404028352916020019161162c565b820191906000526020600020905b81548152906001019060200180831161160f57829003601f168201915b5050505050815260200160088201805461164590612fa8565b80601f016020809104026020016040519081016040528092919081815260200182805461167190612fa8565b80156116be5780601f10611693576101008083540402835291602001916116be565b820191906000526020600020905b8154815290600101906020018083116116a157829003601f168201915b5050509183525050600982015460209091019060ff1660028111156116e5576116e5612a66565b60028111156116f6576116f6612a66565b8152602001600a8201548152602001600b8201548152602001600c8201805461171e90612fa8565b80601f016020809104026020016040519081016040528092919081815260200182805461174a90612fa8565b80156117975780601f1061176c57610100808354040283529160200191611797565b820191906000526020600020905b81548152906001019060200180831161177a57829003601f168201915b5050505050815250508383815181106117b2576117b261310d565b602002602001018190525081806117c890613123565b9250505b806117d681613123565b91505061128e565b50909392505050565b6000808851116118435760405162461bcd60e51b815260206004820152602160248201527f4f7267616e697a6174696f6e206e616d652063616e6e6f7420626520656d70746044820152607960f81b606482015260840161035b565b60008651116118945760405162461bcd60e51b815260206004820152601d60248201527f436f6e7461637420656d61696c2063616e6e6f7420626520656d707479000000604482015260640161035b565b60008551116118ef5760405162461bcd60e51b815260206004820152602160248201527f4d697373696f6e2073746174656d656e742063616e6e6f7420626520656d70746044820152607960f81b606482015260840161035b565b6001600160a01b03841661193e5760405162461bcd60e51b8152602060048201526016602482015275496e76616c69642077616c6c6574206164647265737360501b604482015260640161035b565b600083511161198f5760405162461bcd60e51b815260206004820152601e60248201527f446f63756d656e747320686173682063616e6e6f7420626520656d7074790000604482015260640161035b565b6004805490819060006119a183613123565b9190505550604051806101a00160405280828152602001336001600160a01b031681526020018a8152602001898152602001888152602001878152602001866001600160a01b0316815260200185815260200184815260200160006002811115611a0d57611a0d612a66565b81524260208083019190915260006040808401829052805180840182528281526060909401939093528481526005825282902083518155908301516001820180546001600160a01b0319166001600160a01b03909216919091179055908201516002820190611a7c908261302b565b5060608201516003820190611a91908261302b565b5060808201516004820190611aa6908261302b565b5060a08201516005820190611abb908261302b565b5060c08201516006820180546001600160a01b0319166001600160a01b0390921691909117905560e08201516007820190611af6908261302b565b506101008201516008820190611b0c908261302b565b5061012082015160098201805460ff19166001836002811115611b3157611b31612a66565b0217905550610140820151600a820155610160820151600b820155610180820151600c820190611b61908261302b565b50506006805460018181019092557ff652222313e28459528d920b65115c16c04f3efc82aaedc97be59f3f377c0d3f018390553360008181526007602090815260408083208054958601815583529120909201849055905190915082907fe1c1c3f2000b65def4c5740d3fbf4d05ee222d99d440ee5d65fa731386321fb890611bed908d9042906130eb565b60405180910390a398975050505050505050565b611c0961272e565b611c13600061275b565b565b60035460609060009067ffffffffffffffff811115611c3657611c3661291d565b604051908082528060200260200182016040528015611c6f57816020015b611c5c612836565b815260200190600190039081611c545790505b50905060005b600354811015610fa9576002600060038381548110611c9657611c9661310d565b906000526020600020015481526020019081526020016000206040518060e001604052908160008201548152602001600182018054611cd490612fa8565b80601f0160208091040260200160405190810160405280929190818152602001828054611d0090612fa8565b8015611d4d5780601f10611d2257610100808354040283529160200191611d4d565b820191906000526020600020905b815481529060010190602001808311611d3057829003601f168201915b50505050508152602001600282018054611d6690612fa8565b80601f0160208091040260200160405190810160405280929190818152602001828054611d9290612fa8565b8015611ddf5780601f10611db457610100808354040283529160200191611ddf565b820191906000526020600020905b815481529060010190602001808311611dc257829003601f168201915b505050918352505060038201546001600160a01b0316602082015260048201546040820152600582015460ff16151560608201526006909101546080909101528251839083908110611e3357611e3361310d565b60200260200101819052508080611e4990613123565b915050611c75565b611e5961272e565b6001548310611e7a5760405162461bcd60e51b815260040161035b90612f18565b6000825111611ec25760405162461bcd60e51b81526020600482015260146024820152734e616d652063616e6e6f7420626520656d70747960601b604482015260640161035b565b6000838152600260205260409020600101611edd838261302b565b50600083815260026020819052604090912001611efa828261302b565b50827fa88de682fa5ed0f254c1e550b4487adb20bc2c87c0dc8dd7df88153fa642b15f83836040516104b792919061316a565b6000611f3761272e565b6004548310611f585760405162461bcd60e51b815260040161035b90612f71565b600083815260056020526040812090600982015460ff166002811115611f8057611f80612a66565b14611fcd5760405162461bcd60e51b815260206004820152601a60248201527f4170706c69636174696f6e206973206e6f742070656e64696e67000000000000604482015260640161035b565b60098101805460ff1916600190811790915542600b83015580549081906000611ff583613123565b91905055506040518060e0016040528082815260200183600201805461201a90612fa8565b80601f016020809104026020016040519081016040528092919081815260200182805461204690612fa8565b80156120935780601f1061206857610100808354040283529160200191612093565b820191906000526020600020905b81548152906001019060200180831161207657829003601f168201915b5050509183525050602080820187905260068501546001600160a01b03166040808401919091526000606084018190526001608085018190524260a0909501949094528581526002835220835181559083015190918201906120f5908261302b565b506040820151600282019061210a908261302b565b506060820151600382810180546001600160a01b0319166001600160a01b03909316929092179091556080830151600483015560a083015160058301805460ff191691151591909117905560c09092015160069091015580546001810182556000919091527fc2575a0e9e593c00f959f8c92f12db2869c3395a3b0502d05e2516446f71f85b01819055604051428152819086907fb6227f1e31de3ef6dd18b64c0a4afad92bda3cd34cd5e66f9b0f302e6125bd2c9060200160405180910390a3600682015460405182917fa026ee65bff24e0219543a4cec2746ef952b145e2658ac5db36953d7044712a9916122139160028701916001600160a01b03909116904290613198565b60405180910390a29150505b92915050565b60006001548210801561221f57505060009081526002602052604090206005015460ff1690565b612254612836565b60015482106122755760405162461bcd60e51b815260040161035b90612f18565b600260008381526020019081526020016000206040518060e0016040529081600082015481526020016001820180546122ad90612fa8565b80601f01602080910402602001604051908101604052809291908181526020018280546122d990612fa8565b80156123265780601f106122fb57610100808354040283529160200191612326565b820191906000526020600020905b81548152906001019060200180831161230957829003601f168201915b5050505050815260200160028201805461233f90612fa8565b80601f016020809104026020016040519081016040528092919081815260200182805461236b90612fa8565b80156123b85780601f1061238d576101008083540402835291602001916123b8565b820191906000526020600020905b81548152906001019060200180831161239b57829003601f168201915b505050918352505060038201546001600160a01b0316602082015260048201546040820152600582015460ff161515606082015260069091015460809091015292915050565b60606000805b60035481101561246c5760026000600383815481106124255761242561310d565b6000918252602080832090910154835282019290925260400190206005015460ff161561245a578161245681613123565b9250505b8061246481613123565b915050612404565b5060008167ffffffffffffffff8111156124885761248861291d565b6040519080825280602002602001820160405280156124c157816020015b6124ae612836565b8152602001906001900390816124a65790505b5090506000805b6003548110156117de5760026000600383815481106124e9576124e961310d565b6000918252602080832090910154835282019290925260400190206005015460ff16156126de5760026000600383815481106125275761252761310d565b906000526020600020015481526020019081526020016000206040518060e00160405290816000820154815260200160018201805461256590612fa8565b80601f016020809104026020016040519081016040528092919081815260200182805461259190612fa8565b80156125de5780601f106125b3576101008083540402835291602001916125de565b820191906000526020600020905b8154815290600101906020018083116125c157829003601f168201915b505050505081526020016002820180546125f790612fa8565b80601f016020809104026020016040519081016040528092919081815260200182805461262390612fa8565b80156126705780601f1061264557610100808354040283529160200191612670565b820191906000526020600020905b81548152906001019060200180831161265357829003601f168201915b505050918352505060038201546001600160a01b0316602082015260048201546040820152600582015460ff161515606082015260069091015460809091015283518490849081106126c4576126c461310d565b602002602001018190525081806126da90613123565b9250505b806126e881613123565b9150506124c8565b6126f861272e565b6001600160a01b03811661272257604051631e4fbdf760e01b81526000600482015260240161035b565b61272b8161275b565b50565b6000546001600160a01b03163314611c135760405163118cdaa760e01b815233600482015260240161035b565b600080546001600160a01b038381166001600160a01b0319831681178455604051919092169283917f8be0079c531659141344cd1fd0a4f28419497f9722a3daafe3b4186f6b6457e09190a35050565b604051806101a001604052806000815260200160006001600160a01b031681526020016060815260200160608152602001606081526020016060815260200160006001600160a01b0316815260200160608152602001606081526020016000600281111561281b5761281b612a66565b81526020016000815260200160008152602001606081525090565b6040518060e0016040528060008152602001606081526020016060815260200160006001600160a01b0316815260200160008152602001600015158152602001600081525090565b6001600160a01b038116811461272b57600080fd5b6000602082840312156128a557600080fd5b81356128b08161287e565b9392505050565b6020808252825182820181905260009190848201906040850190845b818110156128ef578351835292840192918401916001016128d3565b50909695505050505050565b6000806040838503121561290e57600080fd5b50508035926020909101359150565b634e487b7160e01b600052604160045260246000fd5b600082601f83011261294457600080fd5b813567ffffffffffffffff8082111561295f5761295f61291d565b604051601f8301601f19908116603f011681019082821181831017156129875761298761291d565b816040528381528660208588010111156129a057600080fd5b836020870160208301376000602085830101528094505050505092915050565b600080604083850312156129d357600080fd5b82359150602083013567ffffffffffffffff8111156129f157600080fd5b6129fd85828601612933565b9150509250929050565b600060208284031215612a1957600080fd5b5035919050565b6000815180845260005b81811015612a4657602081850181015186830182015201612a2a565b506000602082860101526020601f19601f83011685010191505092915050565b634e487b7160e01b600052602160045260246000fd5b60038110612a9a57634e487b7160e01b600052602160045260246000fd5b9052565b60006101a0825184526020830151612ac160208601826001600160a01b03169052565b506040830151816040860152612ad982860182612a20565b91505060608301518482036060860152612af38282612a20565b91505060808301518482036080860152612b0d8282612a20565b91505060a083015184820360a0860152612b278282612a20565b91505060c0830151612b4460c08601826001600160a01b03169052565b5060e083015184820360e0860152612b5c8282612a20565b9150506101008084015185830382870152612b778382612a20565b9250505061012080840151612b8e82870182612a7c565b5050610140838101519085015261016080840151908501526101808084015185830382870152612bbe8382612a20565b9695505050505050565b6020815260006128b06020830184612a9e565b6000602080830181845280855180835260408601915060408160051b870101925083870160005b82811015612c3057603f19888603018452612c1e858351612a9e565b94509285019290850190600101612c02565b5092979650505050505050565b8035612c488161287e565b919050565b600080600060608486031215612c6257600080fd5b833567ffffffffffffffff80821115612c7a57600080fd5b612c8687838801612933565b94506020860135915080821115612c9c57600080fd5b50612ca986828701612933565b9250506040840135612cba8161287e565b809150509250925092565b600080600080600080600060e0888a031215612ce057600080fd5b873567ffffffffffffffff80821115612cf857600080fd5b612d048b838c01612933565b985060208a0135915080821115612d1a57600080fd5b612d268b838c01612933565b975060408a0135915080821115612d3c57600080fd5b612d488b838c01612933565b965060608a0135915080821115612d5e57600080fd5b612d6a8b838c01612933565b9550612d7860808b01612c3d565b945060a08a0135915080821115612d8e57600080fd5b612d9a8b838c01612933565b935060c08a0135915080821115612db057600080fd5b50612dbd8a828b01612933565b91505092959891949750929550565b805182526000602082015160e06020850152612deb60e0850182612a20565b905060408301518482036040860152612e048282612a20565b6060858101516001600160a01b0316908701526080808601519087015260a08581015115159087015260c0948501519490950193909352509192915050565b6000602080830181845280855180835260408601915060408160051b870101925083870160005b82811015612c3057603f19888603018452612e86858351612dcc565b94509285019290850190600101612e6a565b600080600060608486031215612ead57600080fd5b83359250602084013567ffffffffffffffff80821115612ecc57600080fd5b612ed887838801612933565b93506040860135915080821115612eee57600080fd5b50612efb86828701612933565b9150509250925092565b6020815260006128b06020830184612dcc565b602080825260169082015275141c9bda9958dd08191bd95cc81b9bdd08195e1a5cdd60521b604082015260600190565b634e487b7160e01b600052601160045260246000fd5b8082018082111561221f5761221f612f48565b6020808252601a908201527f4170706c69636174696f6e20646f6573206e6f74206578697374000000000000604082015260600190565b600181811c90821680612fbc57607f821691505b602082108103610fa957634e487b7160e01b600052602260045260246000fd5b601f82111561302657600081815260208120601f850160051c810160208610156130035750805b601f850160051c820191505b818110156130225782815560010161300f565b5050505b505050565b815167ffffffffffffffff8111156130455761304561291d565b613059816130538454612fa8565b84612fdc565b602080601f83116001811461308e57600084156130765750858301515b600019600386901b1c1916600185901b178555613022565b600085815260208120601f198616915b828110156130bd5788860151825594840194600190910190840161309e565b50858210156130db5787850151600019600388901b60f8161c191681555b5050505050600190811b01905550565b6040815260006130fe6040830185612a20565b90508260208301529392505050565b634e487b7160e01b600052603260045260246000fd5b60006001820161313557613135612f48565b5060010190565b60608152600061314f6060830186612a20565b6001600160a01b039490941660208301525060400152919050565b60408152600061317d6040830185612a20565b828103602084015261318f8185612a20565b95945050505050565b6060815260008085546131aa81612fa8565b80606086015260806001808416600081146131cc57600181146131e657613217565b60ff1985168884015283151560051b880183019550613217565b8a60005260208060002060005b8681101561320e5781548b82018701529084019082016131f3565b8a018501975050505b505050506001600160a01b038616602085015250905082604083015294935050505056fea2646970667358221220dbdc615464473216a366c0ea69f473b792984f3b54aba6088989a6f93aa69b7364736f6c63430008140033",
  "linkReferences": {},
  "deployedLinkReferences": {}
}